:100000000C94DE020C9406030C9406030C94060375
:100010000C9406030C9406030C9406030C9406033C
:100020000C9406030C9406030C9406030C9406032C
:100030000C9406030C9406030C9406030C9406031C
:100040000C942C0A0C9406030C9406030C940603DF
:100050000C9406030C9406030C9406030C940603FC
:100060000C9406030C94060300000000003E5B4F56
:100070005B3E3E6B4F6B3E1C3E7C3E1C183C7E3C08
:10008000181C577D571C1C5E7F5E1C00183C180016
:10009000FFE7C3E7FF0018241800FFE7DBE7FF30A6
:1000A000483A060E2629792926407F050507407F14
:1000B00005253F5A3CE73C5A7F3E1C1C08081C1C87
:1000C0003E7F14227F22145F5F005F5F06097F017D
:1000D0007F006689956A606060606094A2FFA29468
:1000E00008047E040810207E201008082A1C080836
:1000F0001C2A08081E101010100C1E0C1E0C303884
:100100003E3830060E3E0E06000000000000005F84
:1001100000000007000700147F147F14242A7F2AA0
:100120001223130864623649562050000807030062
:10013000001C2241000041221C002A1C7F1C2A08AE
:10014000083E080800807030000808080808000011
:1001500060600020100804023E5149453E00427F85
:10016000400072494949462141494D331814127FD4
:100170001027454545393C4A494931412111090774
:100180003649494936464949291E000014000000F5
:1001900040340000000814224114141414140041C7
:1001A00022140802015909063E415D594E7C121184
:1001B000127C7F494949363E414141227F414141BC
:1001C0003E7F494949417F090909013E4141517337
:1001D0007F0808087F00417F41002040413F017FA8
:1001E000081422417F404040407F021C027F7F0470
:1001F00008107F3E4141413E7F090909063E4151B9
:10020000215E7F09192946264949493203017F01A8
:10021000033F4040403F1F2040201F3F4038403FA9
:10022000631408146303047804036159494D4300BF
:100230007F4141410204081020004141417F0402F6
:10024000010204404040404000030708002054548D
:1002500078407F284444383844444428384444286B
:100260007F385454541800087E090218A4A49C78BE
:100270007F0804047800447D40002040403D007F1A
:100280001028440000417F40007C047804787C08FA
:100290000404783844444438FC18242418182424CE
:1002A00018FC7C08040408485454542404043F44B3
:1002B000243C4040207C1C2040201C3C4030403CE2
:1002C00044281028444C9090907C4464544C440042
:1002D00008364100000077000000413608000201A6
:1002E0000204023C2623263C1EA1A161123A404092
:1002F000207A38545455592155557941225454780F
:1003000042215554784020545579400C1E527212A7
:100310003955555559395454545939555454580030
:1003200000457C410002457D420001457C407D1234
:1003300011127DF0282528F07C5455450020545496
:100340007C547C0A097F4932494949323A44444441
:100350003A324A4848303A4141217A3A424020787C
:10036000009DA0A07D3D4242423D3D4040403D3C7D
:1003700024FF2424487E4943662B2FFC2F2BFF09A2
:1003800029F620C0887E0903205454794100004496
:100390007D413048484A32384040227A007A0A0A81
:1003A000727D0D19317D2629292F282629292926F4
:1003B00030484D4020380808080808080808382F39
:1003C00010C8ACBA2F102834FA00007B00000814C3
:1003D0002A142222142A14085500550055AA55AA99
:1003E00055AAFF55FF55FF000000FF00101010FF39
:1003F00000141414FF001010FF00FF1010F010F094
:10040000141414FC001414F700FF0000FF00FF1484
:1004100014F404FC141417101F10101F101F1414D0
:10042000141F00101010F0000000001F101010101A
:100430001F10101010F010000000FF10101010100E
:1004400010101010FF10000000FF140000FF00FF4C
:1004500000001F10170000FC04F4141417101714E8
:1004600014F404F40000FF00F7141414141414140A
:10047000F700F7141414171410101F101F1414147D
:10048000F4141010F010F000001F101F0000001FE7
:1004900014000000FC140000F010F01010FF10FF1A
:1004A000141414FF141010101F00000000F010FFAF
:1004B000FFFFFFFFF0F0F0F0F0FFFFFF0000000093
:1004C00000FFFF0F0F0F0F0F3844443844FC4A4A17
:1004D0004A347E02020606027E027E0263554941CC
:1004E000633844443C04407E201E2006027E020203
:1004F00099A5E7A5991C2A492A1C4C7201724C3017
:100500004A4D4D303048784830BC625A463D3E49ED
:100510004949007E0101017E2A2A2A2A2A44445F91
:10052000444440514A444040444A51400000FF0185
:1005300003E080FF000008086B6B08361236243693
:10054000060F090F060000181800000010100030F8
:1005500040FF0101001F01011E00191D1712003C80
:100560003C3C3C00000000000000000800020100CC
:10057000000304070000000000000000000000006D
:10058000250028002B0000000000240027002A007E
:100590000404040404040404020202020202030329
:1005A0000303030301020408102040800102040831
:1005B0001020010204081020960BAA0C11241FBE63
:1005C000CFEFD8E0DEBFCDBF21E0AAE4B1E001C0AB
:1005D0001D92A538B207E1F711E0A0E0B1E0EEE529
:1005E000FEE102C005900D92AA34B107D9F712E0DE
:1005F000CDEDD2E004C02197FE010E941E0DCC3D3E
:10060000D107C9F70E94950A0C94220F0C940000A0
:1006100090E0FC01E859FA4F2491FC01EC55FA4FA7
:100620003491FC01E057FA4FE491EE23C9F0222304
:1006300039F0233001F1A8F4213019F1223029F1E9
:10064000F0E0EE0FFF1FE458FA4FA591B4918FB779
:10065000F894EC91611126C030953E233C938FBFF6
:1006600008952730A9F02830C9F0243049F7809147
:1006700080008F7D03C0809180008F778093800001
:10068000DFCF84B58F7784BDDBCF84B58F7DFBCF83
:100690008091B0008F778093B000D2CF8091B0006E
:1006A0008F7DF9CF3E2BDACFCF93DF93C82FD62F94
:1006B00060E0809178010E9408039FEF9C0F809179
:1006C0007B01890F8850CEBD00000DB407FEFDCF21
:1006D0002EB52D2FC93038F4E0917901F0917A01CF
:1006E000E80FF11D20812EBD00000DB407FEFDCFE7
:1006F0002EB5981738F361E080917801DF91CF91A2
:100700000C9408033FB7F8948091590190915A01D5
:10071000A0915B01B0915C0126B5A89B05C02F3F5D
:1007200019F00196A11DB11D3FBFBA2FA92F982F17
:100730008827BC01CD01620F711D811D911D42E012
:10074000660F771F881F991F4A95D1F70895AF92BA
:10075000BF92CF92DF92EF92FF920F931F93CF93AE
:10076000DF936C017B018B01040F151FEB015E0110
:10077000AE18BF08C017D10759F06991D601ED91A5
:10078000FC910190F081E02DC6010995892B79F744
:10079000C501DF91CF911F910F91FF90EF90DF90F6
:1007A000CF90BF90AF900895EF92FF920F931F9359
:1007B000CF93DF93FC017901342F8689882309F4D4
:1007C00093C0823038F0C085D18521978E01061BF9
:1007D000170BB8019FEF980F923018F43285315003
:1007E000341B80FF81C0862F632F70E0382F448137
:1007F0005581641775070CF079C0832F90E0C6818E
:10080000D7818C179D070CF071C0278DA3E09595BB
:100810008795AA95E1F7289F8001299F100D112443
:10082000CB01B3E095958795BA95E1F7C0A1D1A129
:10083000C00FD11FC80FD91F8881EB01C770DD27FA
:100840003770082F10E062A173A1600F711FDB01E8
:100850009C91923030F067E070E0DB01AC1BBD0B87
:10086000ED016FEF690F623018F467E0631B362FFC
:1008700090FF04C09C2FC32FD0E0392F622F0E941D
:10088000EA0C982F990F990F990F390FB801289FEB
:1008900060197109112483E0660F771F8A95E1F7CB
:1008A0006C0F7D1F832F90E023E0959587952A9507
:1008B000E1F7849FE001859FD00D949FD00D112416
:1008C0006C0F7D1F048CF58DE02DE60FF71F377040
:1008D00081E090E001C0880F3A95EAF72081EF2887
:1008E00061F0822B808302C077FF81CFDF91CF91AF
:1008F0001F910F91FF90EF90089580958223F2CF82
:100900000895FC016370668B84819581268137810F
:10091000613039F0633029F09187808733872287EF
:100920000895318720879387828708950C948104E6
:100930002F923F924F925F926F927F928F929F92EF
:10094000AF92BF92CF92DF92EF92FF920F931F93DD
:10095000CF93DF93CDB7DEB76A970FB6F894DEBFBB
:100960000FBECDBF9A8F898F7A8369834A01D22EB9
:1009700018870F833701BC2CDC0159962D913C91CF
:100980005A972115310509F015C118968D919C9142
:100990001997681779070CF0D7C11A968D919C9119
:1009A000481759070CF0D0C14C2C512CB6E0CB9E07
:1009B000600D711D11247C876B87161617060CF0CD
:1009C000C3C1EA2DF0E0FA87E98793E0EE0FFF1F3D
:1009D0009A95E1F7F88BEF87CF01840F951F1816D2
:1009E00019060CF0B1C1A98DBA8D58968C91811160
:1009F00004C0BFEABD1508F4D394A98DBA8DED915A
:100A0000FC9111970284F385E02DCD010995B5E0A5
:100A1000DB9EC0011124E981FA81FC83EB83312C38
:100A2000212C9C0128593F4F388F2F8B4A2D50E0A5
:100A30005E8B4D8BEF89F88DE20DF31D44919E8204
:100A40008D82D12CC12C69817A81620D731D7A8BC4
:100A5000698B842F90E09C8B8B8BE98DFA8DA08124
:100A6000B18140FF82C0F1E0BF126FC0AF126DC014
:100A70001C96ED91FC912F813885A4014C0D5D1DD4
:100A800069897A89898D9A8D0995EB89FC89F59513
:100A9000E7954E2F5FEFC51AD50A6D817E818D894E
:100AA0009E89680F791F7E836D8398E0C916D104F3
:100AB00081F6AFEF2A1A3A0AEB81FC81E40DF51DAD
:100AC000FC83EB83F5E02F16310409F0B3CF2F81BF
:100AD000388526153705B9F0A98DBA8DED91FC91B1
:100AE000B1E0BB1257C0AB1255C069817A816B5F10
:100AF0007F4F0088F189E02D830128E030E0A401D8
:100B0000898D9A8D0995A98DBA8DED91FC911197DA
:100B10000688F789E02DCD016A960FB6F894DEBFFE
:100B20000FBECDBFDF91CF911F910F91FF90EF903E
:100B3000DF90CF90BF90AF909F908F907F906F90FD
:100B40005F904F903F902F9009941E96ED91FC91ED
:100B5000EF80F88409851A8592014D815E816B8151
:100B60007C81898D9A8D099590CF2F8138852615A6
:100B7000370509F48ACF31E0B31207C0A31205C0CC
:100B80001C96ED91FC91930178CF1E96ED91FC910E
:100B90007301E0CF6B857C85641975090684F78540
:100BA000E02D73010F8518899201A401898D9A8D1A
:100BB0000995A9CFF90134969491329745915491B2
:100BC000D91AB7E0DB9E400D511D1124F901259182
:100BD00034913C8B2B8BFA0125903490FA0132969C
:100BE000749031963491398B32966490319644905A
:100BF00041E04C1518F04A1508F07FC0662D062C10
:100C0000000C770B7C836B83842D042C000C990BD8
:100C10009E838D83A98DBA8DED91FC9111970284ED
:100C2000F385E02DCD010995512CD12CC12CEA2D55
:100C3000F0E0FA87E9872B2D30E03C872B87A40171
:100C4000440D511D47FC5A95588F4F8B69817A810D
:100C5000660D711D67FC7A957E876D877989C71649
:100C600008F051CF2C2D30E04D815E81420F531F93
:100C7000A985BA854A9FC0014B9F900D5A9F900D40
:100C80001124FC01E80DF91DF88BEF87852D612CEF
:100C90004F89588D420F531F5E8B4D8B671408F0A0
:100CA00050C044244394480E877041F4C10101961A
:100CB000EB89FC89E20DF31DD4901C01D7FE19C00D
:100CC000A98DBA8DED91FC91662D70E0B1E0BB125B
:100CD00019C0AB1217C02D853E85620F731F0484A7
:100CE000F585E02D2F8138854D895E89898D9A8D16
:100CF0000995DD0C6394842DD1CF1E821D821C8248
:100D00001B8288CF4B815C81640F751FAB85BC85CE
:100D10006A9FC0016B9F900D7A9F900D112469818D
:100D20007A81680F791F0684F785E02DEF80F884BB
:100D300009851A859D014F855889898D9A8D099558
:100D4000D8CF570CC3948ACF6A960FB6F894DEBFFB
:100D50000FBECDBFDF91CF911F910F91FF90EF900C
:100D6000DF90CF90BF90AF909F908F907F906F90CB
:100D70005F904F903F902F9008958F929F92AF92E7
:100D8000CF92EF92FF920F931F93CF93DF93EC01DB
:100D9000262F898D9A8D009709F051C06A30D1F4C1
:100DA0001D861C868D8948E0849F900111248E85C4
:100DB0009F85820F931F9F878E8781E090E0DF9150
:100DC000CF911F910F91FF90EF90CF90AF909F9098
:100DD0008F9008956D3089F3CC88AD888F898823F2
:100DE000C1F08C859D8536E0C39E800D911D112438
:100DF000488559854817590764F44E855F851D86D7
:100E00001C8638E0A39EC0011124840F951F9F8784
:100E10008E87EA88FB88088919894E855F856C85ED
:100E20007D85CE010E9498042C898C859D8546E0A5
:100E3000249F800D911D11249D878C87BECF6A3021
:100E400069F41D861C86FC013896E4912D898E85F7
:100E50009F85E29F800D911D1124ADCF6D3009F467
:100E6000ACCFFC0134963491631708F4A6CF3296C8
:100E7000E491E61708F4A1CFFC0132968590949096
:100E8000462F431B342F47E0349F800C911C1124C4
:100E9000F401329634913196E4913323A9F1EE2393
:100EA00099F1CC88F4013596E491AD884F894423BB
:100EB00001F10E2E000CFF0BE30FF11DCE9EA001E1
:100EC000CF9E500D11246C857D85460F571F688578
:100ED0007985641775076CF44E855F851D861C86C1
:100EE000FC013896E491AE9E400D511D11245F87A0
:100EF0004E87EA88FB88088919894E855F856C854D
:100F00007D85CE010E949804F4013496E4912C89E9
:100F10008C859D85E29F800D911D11248DCF6F9250
:100F20007F928F929F92AF92BF92CF92DF92EF9279
:100F3000FF920F931F93CF93DF93EC016B015A0144
:100F400039014801E881F9810284F385E02D099592
:100F5000E881F9810288F389E02D87019301A501D9
:100F6000B601CE010995A501480D591D4150510901
:100F7000E881F9810288F389E02D9301B601CE0161
:100F80000995E881F9810088F189E02D9401A50196
:100F9000B601CE010995C60CD71CB6016150710986
:100FA000E881F9810088F189E02D9401A501CE0145
:100FB0000995E881F9810688F789E02DCE01DF9156
:100FC000CF911F910F91FF90EF90DF90CF90BF9046
:100FD000AF909F908F907F906F9009946F927F92C7
:100FE0008F929F92AF92BF92CF92DF92EF92FF9239
:100FF0000F931F93CF93DF935C01EB016A014901CB
:1010000038018701DC01ED91FC916217730719F536
:10101000641675062CF0962D872D3A01C92ED82E10
:101020009601261937092F5F3F4F048CF58DE02D6F
:10103000A301BE01C5010995DF91CF911F910F91C9
:10104000FF90EF90DF90CF90BF90AF909F908F90E8
:101050007F906F9008954615570591F4261737072E
:1010600024F0892D4B01C22FD82F9E012819390950
:101070002F5F3F4F068CF78DE02DA601B401DACF2C
:101080000284F385E02D0995D501ED91FC9104884A
:10109000F589E02D83019401A601BE01C5010995E2
:1010A000D501ED91FC910688F789E02DC501DF910E
:1010B000CF911F910F91FF90EF90DF90CF90BF9055
:1010C000AF909F908F907F906F900994EF92FF92D6
:1010D0000F931F93DC011A960D911C911B97189684
:1010E0002D913C911997ED91FC9100A0F1A1E02D7B
:1010F0007B0150E040E070E060E009951F910F91A6
:10110000FF90EF9008954F925F926F927F928F922F
:101110009F92AF92BF92CF92DF92EF92FF920F9386
:101120001F93CF93DF936C012B015A0139014801C2
:10113000DC01ED91FC910284F385E02D0995E2013B
:10114000640C751CD601ED91FC91C615D7055CF4B5
:101150000088F189E02D87019401A501BE01C60137
:1011600009952196EFCF0688F789E02DC601DF911A
:10117000CF911F910F91FF90EF90DF90CF90BF9094
:10118000AF909F908F907F906F905F904F90099459
:101190008F929F92AF92BF92CF92DF92EF92FF9287
:1011A0000F931F93CF93DF93EC015B014A01690119
:1011B000E881F9810284F385E02D099595012C0DD4
:1011C0003D1D21503109E881F9810488F589E02D20
:1011D00078018401A401B501CE010995E881F98166
:1011E0000688F789E02DCE01DF91CF911F910F91F5
:1011F000FF90EF90DF90CF90BF90AF909F908F9037
:1012000009948F929F92AF92BF92CF92DF92EF920A
:10121000FF920F931F93CF93DF93EC015B014A0181
:1012200069017801E881F9810284F385E02D09954F
:10123000C80CD91C860101501109E881F981048884
:10124000F589E02D9501A401B501CE010995E8814C
:10125000F9810688F789E02DCE01DF91CF911F91AA
:101260000F91FF90EF90DF90CF90BF90AF909F9045
:101270008F9009940895EF92FF920F931F93DC01D2
:10128000ED91FC9100A0F1A1E02D09951F910F9126
:10129000FF90EF9008950F931F93DC01ED91FC9167
:1012A000068CF78DE02D09951F910F9108950F93EE
:1012B0001F93DC01ED91FC91048CF58DE02D0995D7
:1012C0001F910F910895DC01ED91FC910084F1854F
:1012D000E02D09942F923F924F925F926F927F92EE
:1012E0008F929F92AF92BF92CF92DF92EF92FF9236
:1012F0000F931F93CF93DF9300D000D000D0CDB7D2
:10130000DEB73C016A013E832D83FC82EB825801EB
:10131000A41AB50AB7FE03C0B194A194B1088D8098
:101320009E80861A970A97FE03C091948194910833
:101330008A149B045CF0902F812F0D811E819D8368
:101340008E839C2D8D2D6B01692F782F0C151D051B
:101350005CF09D818E817E836D83692F782F902F25
:10136000812F8601C92ED82E1601201A310A2B0191
:101370002D813E81421A530A57FE03C05194419475
:101380005108710137FE03C03FEFE31AF30AF594E9
:10139000E7948D819E81861797075CF5A1E0B0E008
:1013A000BA83A983C016D1064CF1D301ED91FC910B
:1013B0000484F585E02D2B813C81A8016D817E811F
:1013C0008A149B041CF04D815E81B801C30109950C
:1013D000E418F508F7FE0AC02D813E8189819A81C3
:1013E000280F391F3E832D83E20CF31C0F5F1F4F24
:1013F000D9CF2FEF3FEF3A832983D4CF26960FB66C
:10140000F894DEBF0FBECDBFDF91CF911F910F913A
:10141000FF90EF90DF90CF90BF90AF909F908F9014
:101420007F906F905F904F903F902F900895089518
:1014300090E080E008950E94060FFC01468D50E088
:10144000672B39F470E060E0FC01848D958D0C947D
:10145000140F6FEF70E0F8CF1F920F920FB60F923C
:1014600011242F933F938F939F93AF93BF938091BA
:10147000550190915601A0915701B09158013091BA
:10148000540123E0230F2D3758F50196A11DB11DFE
:10149000209354018093550190935601A0935701D6
:1014A000B09358018091590190915A01A0915B012C
:1014B000B0915C010196A11DB11D809359019093DB
:1014C0005A01A0935B01B0935C01BF91AF919F91D2
:1014D0008F913F912F910F900FBE0F901F901895F5
:1014E00026E8230F0296A11DB11DD2CF90E0FC018A
:1014F000EC55FA4F249180579A4FFC018491882330
:1015000099F090E0880F991FFC01EA57FA4FA591D6
:10151000B491FC01E458FA4F859194918FB7F894F7
:10152000EC91E22BEC938FBF0895789484B58260A0
:1015300084BD84B5816084BD85B5826085BD85B577
:10154000816085BD80916E00816080936E001092F5
:101550008100809181008260809381008091810070
:101560008160809381008091800081608093800001
:101570008091B10084608093B1008091B00081605F
:101580008093B00080917A00846080937A0080918B
:101590007A00826080937A0080917A0081608093E3
:1015A0007A0080917A00806880937A001092C1005E
:1015B00067E08AE00E945403E0917F01F09180018E
:1015C00082E08183E0917F01F0918001838320E0BC
:1015D000222E20E0322E712C612CC0914C01D09132
:1015E0004D012091520130915301C29FC001C39F10
:1015F000900DD29F900D11242091650130916601CC
:1016000022503109820F931F6816790608F087C0AF
:1016100070E060E08DE591E00E941D0AC301BE010B
:101620000E94F60C2B01C0916501D09166012197B3
:10163000C81BD90B80916701909168014C0128E08B
:10164000821A910897FE04C04C0127E0821A910883
:101650009594879480914C0190914D018C0F9D1F22
:10166000181619066CF58091520190915301481695
:101670005906C8F4E0914E01F0914F013097E9F41A
:1016800010924B01EBE4F1E0AA24A394CC24C39480
:10169000F12CE12C01E010E02081A401BE018DE5D8
:1016A00091E00E94980481E0481A510880914C0111
:1016B00090914D01C81BD90BCDCFE40DF51DE4CFA2
:1016C000C8E060E08C2F0E945403C150D1F70E9403
:1016D00082036B017C0182E3882E912CA12CB12C1A
:1016E0000E9482036C197D098E099F09683E734030
:1016F00081059105A8F321E0821A9108A108B1089B
:1017000088EEC80E83E0D81EE11CF11C8114910400
:10171000A104B10429F78FEF681A780A5ECF21146B
:10172000310409F458CF0E94000055CFCF93109296
:10173000600110925F0120E230E03093620120935B
:10174000610188E090E0909364018093630130939D
:101750006601209365019093680180936701109260
:10176000730110926A011092690110926C0110923B
:101770006B0181E080937201809371012FEF3FEF45
:101780003093700120936F0130936E0120936D01AF
:101790008093740110927501109277011092760176
:1017A0008AE091E090935E0180935D018AE08093EE
:1017B000780184E080937C0180E280937B0180E269
:1017C00090E00E94240D90937A018093790184E047
:1017D00090E00E94240D9093800180937F0184E02B
:1017E00090E00E94240D90937E0180937D0190E013
:1017F00080E0E0917D01F0917E01E80FF91F808388
:10180000E0917F01F0918001E80FF91F10820196AD
:101810008430910571F7CFB7F89480914A01811116
:1018200024C0EAE9F5E08491EEEAF5E09491E82F2E
:10183000F0E0EE0FFF1FEA57FA4FA591B491EC913B
:10184000E92321F461E08AE00E9408038AE00E9413
:10185000760A8CB580618CBD8CB580648CBD8DE0C2
:101860000E94760A8BE00E94760A80914A018F5F7F
:1018700080934A01CFBF809178010E94760A70E080
:1018800060E08DE591E00E941D0A60E08FE00E941B
:10189000540367E08BE00E94540360E089E00E94FB
:1018A000540361E08CE00E94540367E08AE00E94E8
:1018B000540310924F0110924E0110925101109258
:1018C0005001109253011092520167E170E090E0D4
:1018D00080E00E94490E009709F190934F01809398
:1018E0004E0126E130E030935101209350012091C8
:1018F000520130915301232B11F4FC01108286E137
:1019000090E0909353018093520162E371E08091E3
:101910004E0190914F010E941B0F14C080914E0107
:1019200090914F01009711F00E94C00D10924F014D
:1019300010924E01109253011092520110925101D7
:101940001092500186E090E090934D0180934C01FD
:10195000CF91089580914E0190914F01009711F021
:101960000C94C00D08952F923F924F925F926F9208
:101970007F928F929F92AF92BF92CF92DF92EF921F
:10198000FF920F931F93CF93DF93CDB7DEB7CA1BA0
:10199000DB0B0FB6F894DEBF0FBECDBF09942A88CB
:1019A000398848885F846E847D848C849B84AA8473
:1019B000B984C884DF80EE80FD800C811B81AA8100
:1019C000B981CE0FD11D0FB6F894DEBF0FBECDBFCB
:1019D000ED010895991B79E004C0991F961708F04E
:1019E000961B881F7A95C9F78095089597FB072E57
:1019F00016F4009407D077FD09D00E940A0D07FC69
:101A000005D03EF4909581959F4F0895709561950E
:101A10007F4F0895AA1BBB1B51E107C0AA1FBB1F24
:101A2000A617B70710F0A61BB70B881F991F5A956A
:101A3000A9F780959095BC01CD010895EE0FFF1F89
:101A40000590F491E02D09940F931F93CF93DF93AA
:101A50008230910510F482E090E0E0918301F091F2
:101A6000840130E020E0B0E0A0E0309799F4211547
:101A7000310509F44AC0281B390B24303105D8F54B
:101A80008A819B816115710589F1FB0193838283B2
:101A9000FE0111C04081518102811381481759070D
:101AA000E0F04817590799F4109761F012960C93DB
:101AB000129713961C933296CF01DF91CF911F910D
:101AC0000F9108950093830110938401F4CF2115A1
:101AD000310551F04217530738F0A901DB019A0193
:101AE000BD01DF01F801C1CFEF01F9CF909384016F
:101AF00080938301CDCFFE01E20FF31F8193919379
:101B00002250310939832883D7CF20918101309128
:101B10008201232B41F42091020130910301309383
:101B20008201209381012091000130910101211552
:101B3000310541F42DB73EB74091040150910501A4
:101B4000241B350BE0918101F0918201E217F3072C
:101B5000A0F42E1B3F0B2817390778F0AC014E5F1D
:101B60005F4F2417350748F04E0F5F1F50938201D7
:101B700040938101819391939FCFF0E0E0E09CCF6F
:101B8000CF93DF930097E9F0FC0132971382128222
:101B9000A0918301B0918401ED0130E020E0109725
:101BA000A1F420813181820F931F20918101309116
:101BB00082012817390709F061C0F0938201E09390
:101BC0008101DF91CF910895EA01CE17DF07E8F593
:101BD0004A815B819E0141155105B1F7E901FB8303
:101BE000EA8349915991C40FD51FEC17FD0761F4A1
:101BF000808191810296840F951FE90199838883E2
:101C0000828193819B838A83F0E0E0E012968D913C
:101C10009C9113970097B9F52D913C911197CD01A7
:101C20000296820F931F2091810130918201281723
:101C3000390739F6309751F51092840110928301DB
:101C4000B0938201A0938101BCCFD383C283408132
:101C50005181840F951FC817D90761F44E5F5F4FFC
:101C600088819981480F591F518340838A819B81C4
:101C7000938382832115310509F0B0CFF09384015D
:101C8000E09383019ECFFD01DC01C0CF138212825D
:101C9000D7CFB0E0A0E0EFE4FEE00C94B50C8C01EF
:101CA000009751F4CB010E94240D8C01C801CDB7DF
:101CB000DEB7E0E10C94D10CFC01E60FF71F9C01AC
:101CC00022503109E217F30708F49DC0D901CD91E4
:101CD000DC911197C617D70798F0C530D10530F3BE
:101CE000CE0104978617970708F3C61BD70B2297D8
:101CF000C193D1936D937C93CF010E94C00DD6CF39
:101D00005B01AC1ABD0A4C018C0E9D1EA091830193
:101D1000B0918401512C412CF12CE12C109731F51C
:101D200080918101909182018815990509F05CC02C
:101D30004616570608F058C08091000190910101A5
:101D4000009741F48DB79EB7409104015091050171
:101D5000841B950BE817F90708F055C0F093820132
:101D6000E0938101F90171836083A0CF8D919C91F3
:101D7000119712966C90129713967C901397A81552
:101D8000B90559F56C0142E0C40ED11CCA14DB043C
:101D900020F1AC014A195B09DA011296159780F01F
:101DA0006282738251834083D9016D937C93E114E5
:101DB000F10471F0D7011396FC93EE93129776CF4E
:101DC00022968C0F9D1FF90191838083F301EFCF41
:101DD000F0938401E093830169CF4816590608F413
:101DE0002C017D01D3019ACFCB010E94240D7C01EF
:101DF000009749F0AE01B8010E940B0FC8010E9484
:101E0000C00D870153CF10E000E050CF81E090E09B
:101E1000F8940C94220FFB01DC0102C001900D929A
:101E200041505040D8F70895DC0101C06D934150F6
:101E30005040E0F70895FB01DC0101900D92002075
:101E4000E1F7089512E0CDEDD2E004C0FE010E945A
:0E1E50001E0D2196CE3DD107C9F7F894FFCFA5
:101E5E0000008501800000000000BD06A703180ADF
:101E6E00170AD4033A0963093B0957094B096A0952
:101E7E003A09960480040109C80883081D0AEE0772
:101E8E008F0757756C6B616E697A61636A61206F3B
:0A1E9E00706F6E2032342F37000001
:00000001FF
